{
  "_format": "hh-sol-artifact-1",
  "contractName": "Crowdsale",
  "sourceName": "contracts/Crowdsale.sol",
  "abi": [
    {
      "inputs": [
        {
          "internalType": "address",
          "name": "tokenAddress",
          "type": "address"
        },
        {
          "internalType": "uint256",
          "name": "_rate",
          "type": "uint256"
        }
      ],
      "stateMutability": "nonpayable",
      "type": "constructor"
    },
    {
      "inputs": [],
      "name": "buyTokens",
      "outputs": [],
      "stateMutability": "payable",
      "type": "function"
    },
    {
      "inputs": [],
      "name": "rate",
      "outputs": [
        {
          "internalType": "uint256",
          "name": "",
          "type": "uint256"
        }
      ],
      "stateMutability": "view",
      "type": "function"
    },
    {
      "inputs": [],
      "name": "token",
      "outputs": [
        {
          "internalType": "contract IERC20",
          "name": "",
          "type": "address"
        }
      ],
      "stateMutability": "view",
      "type": "function"
    }
  ],
  "bytecode": "0x608060405234801561001057600080fd5b506040516106d53803806106d583398181016040528101906100329190610119565b816000806101000a81548173ffffffffffffffffffffffffffffffffffffffff021916908373ffffffffffffffffffffffffffffffffffffffff160217905550806001819055505050610159565b600080fd5b600073ffffffffffffffffffffffffffffffffffffffff82169050919050565b60006100b082610085565b9050919050565b6100c0816100a5565b81146100cb57600080fd5b50565b6000815190506100dd816100b7565b92915050565b6000819050919050565b6100f6816100e3565b811461010157600080fd5b50565b600081519050610113816100ed565b92915050565b600080604083850312156101305761012f610080565b5b600061013e858286016100ce565b925050602061014f85828601610104565b9150509250929050565b61056d806101686000396000f3fe6080604052600436106100345760003560e01c80632c4e722e14610039578063d0febe4c14610064578063fc0c546a1461006e575b600080fd5b34801561004557600080fd5b5061004e610099565b60405161005b919061026c565b60405180910390f35b61006c61009f565b005b34801561007a57600080fd5b5061008361022f565b6040516100909190610306565b60405180910390f35b60015481565b6000600154346100af9190610350565b90508060008054906101000a900473ffffffffffffffffffffffffffffffffffffffff1673ffffffffffffffffffffffffffffffffffffffff166370a08231306040518263ffffffff1660e01b815260040161010b91906103b3565b602060405180830381865afa158015610128573d6000803e3d6000fd5b505050506040513d601f19601f8201168201806040525081019061014c91906103ff565b101561018d576040517f08c379a000000000000000000000000000000000000000000000000000000000815260040161018490610489565b60405180910390fd5b60008054906101000a900473ffffffffffffffffffffffffffffffffffffffff1673ffffffffffffffffffffffffffffffffffffffff1663a9059cbb33836040518363ffffffff1660e01b81526004016101e89291906104a9565b6020604051808303816000875af1158015610207573d6000803e3d6000fd5b505050506040513d601f19601f8201168201806040525081019061022b919061050a565b5050565b60008054906101000a900473ffffffffffffffffffffffffffffffffffffffff1681565b6000819050919050565b61026681610253565b82525050565b6000602082019050610281600083018461025d565b92915050565b600073ffffffffffffffffffffffffffffffffffffffff82169050919050565b6000819050919050565b60006102cc6102c76102c284610287565b6102a7565b610287565b9050919050565b60006102de826102b1565b9050919050565b60006102f0826102d3565b9050919050565b610300816102e5565b82525050565b600060208201905061031b60008301846102f7565b92915050565b7f4e487b7100000000000000000000000000000000000000000000000000000000600052601160045260246000fd5b600061035b82610253565b915061036683610253565b925082820261037481610253565b9150828204841483151761038b5761038a610321565b5b5092915050565b600061039d82610287565b9050919050565b6103ad81610392565b82525050565b60006020820190506103c860008301846103a4565b92915050565b600080fd5b6103dc81610253565b81146103e757600080fd5b50565b6000815190506103f9816103d3565b92915050565b600060208284031215610415576104146103ce565b5b6000610423848285016103ea565b91505092915050565b600082825260208201905092915050565b7f4e6f7420656e6f75676820746f6b656e7320696e20636f6e7472616374000000600082015250565b6000610473601d8361042c565b915061047e8261043d565b602082019050919050565b600060208201905081810360008301526104a281610466565b9050919050565b60006040820190506104be60008301856103a4565b6104cb602083018461025d565b9392505050565b60008115159050919050565b6104e7816104d2565b81146104f257600080fd5b50565b600081519050610504816104de565b92915050565b6000602082840312156105205761051f6103ce565b5b600061052e848285016104f5565b9150509291505056fea2646970667358221220211ef13f925967e94d5d0939e3f50fe643bc20fe7207b7deb350b0e08080743c64736f6c634300081c0033",
  "linkReferences": {},
  "deployedLinkReferences": {}
}