{
  "_format": "hh-sol-artifact-1",
  "contractName": "Staking",
  "sourceName": "contracts/Staking.sol",
  "abi": [
    {
      "inputs": [
        {
          "internalType": "address",
          "name": "_token",
          "type": "address"
        }
      ],
      "stateMutability": "nonpayable",
      "type": "constructor"
    },
    {
      "inputs": [
        {
          "internalType": "address",
          "name": "owner",
          "type": "address"
        }
      ],
      "name": "OwnableInvalidOwner",
      "type": "error"
    },
    {
      "inputs": [
        {
          "internalType": "address",
          "name": "account",
          "type": "address"
        }
      ],
      "name": "OwnableUnauthorizedAccount",
      "type": "error"
    },
    {
      "anonymous": false,
      "inputs": [
        {
          "indexed": true,
          "internalType": "address",
          "name": "previousOwner",
          "type": "address"
        },
        {
          "indexed": true,
          "internalType": "address",
          "name": "newOwner",
          "type": "address"
        }
      ],
      "name": "OwnershipTransferred",
      "type": "event"
    },
    {
      "inputs": [],
      "name": "REWARD_RATE",
      "outputs": [
        {
          "internalType": "uint256",
          "name": "",
          "type": "uint256"
        }
      ],
      "stateMutability": "view",
      "type": "function"
    },
    {
      "inputs": [],
      "name": "claimReward",
      "outputs": [
        {
          "internalType": "uint256",
          "name": "",
          "type": "uint256"
        }
      ],
      "stateMutability": "view",
      "type": "function"
    },
    {
      "inputs": [],
      "name": "owner",
      "outputs": [
        {
          "internalType": "address",
          "name": "",
          "type": "address"
        }
      ],
      "stateMutability": "view",
      "type": "function"
    },
    {
      "inputs": [
        {
          "internalType": "address",
          "name": "",
          "type": "address"
        }
      ],
      "name": "positions",
      "outputs": [
        {
          "internalType": "uint256",
          "name": "amount",
          "type": "uint256"
        },
        {
          "internalType": "uint256",
          "name": "timestamp",
          "type": "uint256"
        }
      ],
      "stateMutability": "view",
      "type": "function"
    },
    {
      "inputs": [],
      "name": "renounceOwnership",
      "outputs": [],
      "stateMutability": "nonpayable",
      "type": "function"
    },
    {
      "inputs": [
        {
          "internalType": "uint256",
          "name": "amount",
          "type": "uint256"
        }
      ],
      "name": "stake",
      "outputs": [],
      "stateMutability": "nonpayable",
      "type": "function"
    },
    {
      "inputs": [],
      "name": "token",
      "outputs": [
        {
          "internalType": "contract IERC20",
          "name": "",
          "type": "address"
        }
      ],
      "stateMutability": "view",
      "type": "function"
    },
    {
      "inputs": [
        {
          "internalType": "address",
          "name": "newOwner",
          "type": "address"
        }
      ],
      "name": "transferOwnership",
      "outputs": [],
      "stateMutability": "nonpayable",
      "type": "function"
    },
    {
      "inputs": [],
      "name": "withdraw",
      "outputs": [],
      "stateMutability": "nonpayable",
      "type": "function"
    }
  ],
  "bytecode": "0x608060405234801561001057600080fd5b5060405161108238038061108283398181016040528101906100329190610223565b33600073ffffffffffffffffffffffffffffffffffffffff168173ffffffffffffffffffffffffffffffffffffffff16036100a55760006040517f1e4fbdf700000000000000000000000000000000000000000000000000000000815260040161009c919061025f565b60405180910390fd5b6100b4816100fc60201b60201c565b5080600160006101000a81548173ffffffffffffffffffffffffffffffffffffffff021916908373ffffffffffffffffffffffffffffffffffffffff1602179055505061027a565b60008060009054906101000a900473ffffffffffffffffffffffffffffffffffffffff169050816000806101000a81548173ffffffffffffffffffffffffffffffffffffffff021916908373ffffffffffffffffffffffffffffffffffffffff1602179055508173ffffffffffffffffffffffffffffffffffffffff168173ffffffffffffffffffffffffffffffffffffffff167f8be0079c531659141344cd1fd0a4f28419497f9722a3daafe3b4186f6b6457e060405160405180910390a35050565b600080fd5b600073ffffffffffffffffffffffffffffffffffffffff82169050919050565b60006101f0826101c5565b9050919050565b610200816101e5565b811461020b57600080fd5b50565b60008151905061021d816101f7565b92915050565b600060208284031215610239576102386101c0565b5b60006102478482850161020e565b91505092915050565b610259816101e5565b82525050565b60006020820190506102746000830184610250565b92915050565b610df9806102896000396000f3fe608060405234801561001057600080fd5b50600436106100935760003560e01c80638da5cb5b116100665780638da5cb5b146100fb578063a694fc3a14610119578063b88a802f14610135578063f2fde38b14610153578063fc0c546a1461016f57610093565b80633ccfd60b1461009857806355f57510146100a25780635997bb37146100d3578063715018a6146100f1575b600080fd5b6100a061018d565b005b6100bc60048036038101906100b791906108dd565b61038c565b6040516100ca929190610923565b60405180910390f35b6100db6103b0565b6040516100e8919061094c565b60405180910390f35b6100f96103bc565b005b6101036103d0565b6040516101109190610976565b60405180910390f35b610133600480360381019061012e91906109bd565b6103f9565b005b61013d6105d2565b60405161014a919061094c565b60405180910390f35b61016d600480360381019061016891906108dd565b61067b565b005b610177610701565b6040516101849190610a49565b60405180910390f35b6000600260003373ffffffffffffffffffffffffffffffffffffffff1673ffffffffffffffffffffffffffffffffffffffff1681526020019081526020016000206040518060400160405290816000820154815260200160018201548152505090506000816000015111610236576040517f08c379a000000000000000000000000000000000000000000000000000000000815260040161022d90610ac1565b60405180910390fd5b60006102406105d2565b905060008183600001516102549190610b10565b9050600260003373ffffffffffffffffffffffffffffffffffffffff1673ffffffffffffffffffffffffffffffffffffffff16815260200190815260200160002060008082016000905560018201600090555050600160009054906101000a900473ffffffffffffffffffffffffffffffffffffffff1673ffffffffffffffffffffffffffffffffffffffff1663a9059cbb33836040518363ffffffff1660e01b8152600401610305929190610b44565b6020604051808303816000875af1158015610324573d6000803e3d6000fd5b505050506040513d601f19601f820116820180604052508101906103489190610ba5565b610387576040517f08c379a000000000000000000000000000000000000000000000000000000000815260040161037e90610c1e565b60405180910390fd5b505050565b60026020528060005260406000206000915090508060000154908060010154905082565b678ac7230489e8000081565b6103c4610727565b6103ce60006107ae565b565b60008060009054906101000a900473ffffffffffffffffffffffffffffffffffffffff16905090565b6000811161043c576040517f08c379a000000000000000000000000000000000000000000000000000000000815260040161043390610c8a565b60405180910390fd5b6000600260003373ffffffffffffffffffffffffffffffffffffffff1673ffffffffffffffffffffffffffffffffffffffff16815260200190815260200160002060000154146104c1576040517f08c379a00000000000000000000000000000000000000000000000000000000081526004016104b890610cf6565b60405180910390fd5b600160009054906101000a900473ffffffffffffffffffffffffffffffffffffffff1673ffffffffffffffffffffffffffffffffffffffff166323b872dd3330846040518463ffffffff1660e01b815260040161052093929190610d16565b6020604051808303816000875af115801561053f573d6000803e3d6000fd5b505050506040513d601f19601f820116820180604052508101906105639190610ba5565b50604051806040016040528082815260200142815250600260003373ffffffffffffffffffffffffffffffffffffffff1673ffffffffffffffffffffffffffffffffffffffff168152602001908152602001600020600082015181600001556020820151816001015590505050565b600080600260003373ffffffffffffffffffffffffffffffffffffffff1673ffffffffffffffffffffffffffffffffffffffff168152602001908152602001600020604051806040016040529081600082015481526020016001820154815250509050600081600001510361064b576000915050610678565b600081602001514261065d9190610d4d565b9050678ac7230489e80000816106739190610d81565b925050505b90565b610683610727565b600073ffffffffffffffffffffffffffffffffffffffff168173ffffffffffffffffffffffffffffffffffffffff16036106f55760006040517f1e4fbdf70000000000000000000000000000000000000000000000000000000081526004016106ec9190610976565b60405180910390fd5b6106fe816107ae565b50565b600160009054906101000a900473ffffffffffffffffffffffffffffffffffffffff1681565b61072f610872565b73ffffffffffffffffffffffffffffffffffffffff1661074d6103d0565b73ffffffffffffffffffffffffffffffffffffffff16146107ac57610770610872565b6040517f118cdaa70000000000000000000000000000000000000000000000000000000081526004016107a39190610976565b60405180910390fd5b565b60008060009054906101000a900473ffffffffffffffffffffffffffffffffffffffff169050816000806101000a81548173ffffffffffffffffffffffffffffffffffffffff021916908373ffffffffffffffffffffffffffffffffffffffff1602179055508173ffffffffffffffffffffffffffffffffffffffff168173ffffffffffffffffffffffffffffffffffffffff167f8be0079c531659141344cd1fd0a4f28419497f9722a3daafe3b4186f6b6457e060405160405180910390a35050565b600033905090565b600080fd5b600073ffffffffffffffffffffffffffffffffffffffff82169050919050565b60006108aa8261087f565b9050919050565b6108ba8161089f565b81146108c557600080fd5b50565b6000813590506108d7816108b1565b92915050565b6000602082840312156108f3576108f261087a565b5b6000610901848285016108c8565b91505092915050565b6000819050919050565b61091d8161090a565b82525050565b60006040820190506109386000830185610914565b6109456020830184610914565b9392505050565b60006020820190506109616000830184610914565b92915050565b6109708161089f565b82525050565b600060208201905061098b6000830184610967565b92915050565b61099a8161090a565b81146109a557600080fd5b50565b6000813590506109b781610991565b92915050565b6000602082840312156109d3576109d261087a565b5b60006109e1848285016109a8565b91505092915050565b6000819050919050565b6000610a0f610a0a610a058461087f565b6109ea565b61087f565b9050919050565b6000610a21826109f4565b9050919050565b6000610a3382610a16565b9050919050565b610a4381610a28565b82525050565b6000602082019050610a5e6000830184610a3a565b92915050565b600082825260208201905092915050565b7f4e6f20616374697665207374616b650000000000000000000000000000000000600082015250565b6000610aab600f83610a64565b9150610ab682610a75565b602082019050919050565b60006020820190508181036000830152610ada81610a9e565b9050919050565b7f4e487b7100000000000000000000000000000000000000000000000000000000600052601160045260246000fd5b6000610b1b8261090a565b9150610b268361090a565b9250828201905080821115610b3e57610b3d610ae1565b5b92915050565b6000604082019050610b596000830185610967565b610b666020830184610914565b9392505050565b60008115159050919050565b610b8281610b6d565b8114610b8d57600080fd5b50565b600081519050610b9f81610b79565b92915050565b600060208284031215610bbb57610bba61087a565b5b6000610bc984828501610b90565b91505092915050565b7f5472616e73666572206661696c65640000000000000000000000000000000000600082015250565b6000610c08600f83610a64565b9150610c1382610bd2565b602082019050919050565b60006020820190508181036000830152610c3781610bfb565b9050919050565b7f416d6f756e74206d7573742062652067726561746572207468616e2030000000600082015250565b6000610c74601d83610a64565b9150610c7f82610c3e565b602082019050919050565b60006020820190508181036000830152610ca381610c67565b9050919050565b7f416c7265616479207374616b696e670000000000000000000000000000000000600082015250565b6000610ce0600f83610a64565b9150610ceb82610caa565b602082019050919050565b60006020820190508181036000830152610d0f81610cd3565b9050919050565b6000606082019050610d2b6000830186610967565b610d386020830185610967565b610d456040830184610914565b949350505050565b6000610d588261090a565b9150610d638361090a565b9250828203905081811115610d7b57610d7a610ae1565b5b92915050565b6000610d8c8261090a565b9150610d978361090a565b9250828202610da58161090a565b91508282048414831517610dbc57610dbb610ae1565b5b509291505056fea26469706673582212202925abd0ff6c57784dd443f380f434b6cfc0be78686ddfa22b95a4c95a31fa5864736f6c634300081c0033",
  "linkReferences": {},
  "deployedLinkReferences": {}
}